{
  "contractName": "AddNumbers",
  "abi": [
    {
      "inputs": [],
      "name": "result",
      "outputs": [
        {
          "internalType": "uint256",
          "name": "",
          "type": "uint256"
        }
      ],
      "stateMutability": "view",
      "type": "function"
    },
    {
      "inputs": [
        {
          "internalType": "uint256",
          "name": "a",
          "type": "uint256"
        },
        {
          "internalType": "uint256",
          "name": "b",
          "type": "uint256"
        }
      ],
      "name": "add",
      "outputs": [],
      "stateMutability": "nonpayable",
      "type": "function"
    },
    {
      "inputs": [],
      "name": "getResult",
      "outputs": [
        {
          "internalType": "uint256",
          "name": "",
          "type": "uint256"
        }
      ],
      "stateMutability": "view",
      "type": "function"
    }
  ],
  "bytecode": "0x608060405234801561001057600080fd5b5061021a806100206000396000f3fe608060405234801561001057600080fd5b50600436106100415760003560e01c80636537214714610046578063771602f714610064578063de29278914610080575b600080fd5b61004e61009e565b60405161005b9190610123565b60405180910390f35b61007e600480360381019061007991906100d8565b6100a4565b005b6100886100ba565b6040516100959190610123565b60405180910390f35b60005481565b80826100b0919061013e565b6000819055505050565b60008054905090565b6000813590506100d2816101cd565b92915050565b600080604083850312156100eb57600080fd5b60006100f9858286016100c3565b925050602061010a858286016100c3565b9150509250929050565b61011d81610194565b82525050565b60006020820190506101386000830184610114565b92915050565b600061014982610194565b915061015483610194565b9250827fffffffffffffffffffffffffffffffffffffffffffffffffffffffffffffffff038211156101895761018861019e565b5b828201905092915050565b6000819050919050565b7f4e487b7100000000000000000000000000000000000000000000000000000000600052601160045260246000fd5b6101d681610194565b81146101e157600080fd5b5056fea264697066735822122026f3223853bb544b8d4807d9f8c0a31d74d4062fd3636f61bb5baabae9798f8a64736f6c63430008000033",
  "immutableReferences": {},
  "source": "// SPDX-License-Identifier: MIT\r\npragma solidity ^0.8.0;\r\n\r\ncontract AddNumbers {\r\n    uint256 public result;\r\n\r\n    function add(uint256 a, uint256 b) public {\r\n        result = a + b;\r\n    }\r\n\r\n    function getResult() public view returns (uint256) {\r\n        return result;\r\n    }\r\n}\r\n",
  "sourcePath": "C:\\Users\\BYUMVUHORE Aimable\\Desktop\\AddTwoNumbersDApp\\add-two-numbers-dapp\\src\\contracts\\AddNumbers.sol",
  "compiler": {
    "name": "solc",
    "version": "0.8.0+commit.c7dfd78e.Emscripten.clang"
  },
  "schemaVersion": "3.4.16",
  "updatedAt": "2024-05-23T09:49:01.150Z",
  "devdoc": {
    "kind": "dev",
    "methods": {},
    "version": 1
  },
  "userdoc": {
    "kind": "user",
    "methods": {},
    "version": 1
  }
}